{
  "_format": "hh-sol-artifact-1",
  "contractName": "Forwarder",
  "sourceName": "contracts/Forwarder.sol",
  "abi": [
    {
      "anonymous": false,
      "inputs": [
        {
          "indexed": true,
          "internalType": "address",
          "name": "previousOwner",
          "type": "address"
        },
        {
          "indexed": true,
          "internalType": "address",
          "name": "newOwner",
          "type": "address"
        }
      ],
      "name": "OwnershipTransferred",
      "type": "event"
    },
    {
      "stateMutability": "payable",
      "type": "fallback"
    },
    {
      "inputs": [
        {
          "internalType": "address",
          "name": "_applicationContract",
          "type": "address"
        },
        {
          "internalType": "bytes",
          "name": "_encodedPayload",
          "type": "bytes"
        }
      ],
      "name": "forwardCall",
      "outputs": [],
      "stateMutability": "nonpayable",
      "type": "function"
    },
    {
      "inputs": [],
      "name": "owner",
      "outputs": [
        {
          "internalType": "address",
          "name": "",
          "type": "address"
        }
      ],
      "stateMutability": "view",
      "type": "function"
    },
    {
      "inputs": [],
      "name": "renounceOwnership",
      "outputs": [],
      "stateMutability": "nonpayable",
      "type": "function"
    },
    {
      "inputs": [],
      "name": "reputation",
      "outputs": [
        {
          "internalType": "contract Registry",
          "name": "",
          "type": "address"
        }
      ],
      "stateMutability": "view",
      "type": "function"
    },
    {
      "inputs": [
        {
          "internalType": "address",
          "name": "_reputationAddress",
          "type": "address"
        }
      ],
      "name": "setReputation",
      "outputs": [],
      "stateMutability": "nonpayable",
      "type": "function"
    },
    {
      "inputs": [
        {
          "internalType": "address",
          "name": "newOwner",
          "type": "address"
        }
      ],
      "name": "transferOwnership",
      "outputs": [],
      "stateMutability": "nonpayable",
      "type": "function"
    },
    {
      "stateMutability": "payable",
      "type": "receive"
    }
  ],
  "bytecode": "0x608060405234801561001057600080fd5b5061002d61002261003260201b60201c565b61003a60201b60201c565b6100fe565b600033905090565b60008060009054906101000a900473ffffffffffffffffffffffffffffffffffffffff169050816000806101000a81548173ffffffffffffffffffffffffffffffffffffffff021916908373ffffffffffffffffffffffffffffffffffffffff1602179055508173ffffffffffffffffffffffffffffffffffffffff168173ffffffffffffffffffffffffffffffffffffffff167f8be0079c531659141344cd1fd0a4f28419497f9722a3daafe3b4186f6b6457e060405160405180910390a35050565b610e6a8061010d6000396000f3fe6080604052600436106100595760003560e01c806322bee49414610062578063715018a61461008b5780638da5cb5b146100a2578063c52164c6146100cd578063f2fde38b146100f8578063f7d0e04b1461012157610060565b3661006057005b005b34801561006e57600080fd5b50610089600480360381019061008491906108dd565b61014a565b005b34801561009757600080fd5b506100a0610388565b005b3480156100ae57600080fd5b506100b7610410565b6040516100c49190610bab565b60405180910390f35b3480156100d957600080fd5b506100e2610439565b6040516100ef9190610bef565b60405180910390f35b34801561010457600080fd5b5061011f600480360381019061011a91906108b4565b61045f565b005b34801561012d57600080fd5b50610148600480360381019061014391906108b4565b610557565b005b600073ffffffffffffffffffffffffffffffffffffffff16600160009054906101000a900473ffffffffffffffffffffffffffffffffffffffff1673ffffffffffffffffffffffffffffffffffffffff1614156101dc576040517f08c379a00000000000000000000000000000000000000000000000000000000081526004016101d390610c8a565b60405180910390fd5b3373ffffffffffffffffffffffffffffffffffffffff163273ffffffffffffffffffffffffffffffffffffffff161461024a576040517f08c379a000000000000000000000000000000000000000000000000000000000815260040161024190610c6a565b60405180910390fd5b600061029a8484848080601f016020809104026020016040519081016040528093929190818152602001838380828437600081840152601f19601f820116905080830192505050505050506106a8565b9050600033905060008211156102f2578073ffffffffffffffffffffffffffffffffffffffff166108fc839081150290604051600060405180830381858888f193505050501580156102f0573d6000803e3d6000fd5b505b600160009054906101000a900473ffffffffffffffffffffffffffffffffffffffff1673ffffffffffffffffffffffffffffffffffffffff166330b9991b82846040518363ffffffff1660e01b815260040161034f929190610bc6565b600060405180830381600087803b15801561036957600080fd5b505af115801561037d573d6000803e3d6000fd5b505050505050505050565b610390610789565b73ffffffffffffffffffffffffffffffffffffffff166103ae610410565b73ffffffffffffffffffffffffffffffffffffffff1614610404576040517f08c379a00000000000000000000000000000000000000000000000000000000081526004016103fb90610c4a565b60405180910390fd5b61040e6000610791565b565b60008060009054906101000a900473ffffffffffffffffffffffffffffffffffffffff16905090565b600160009054906101000a900473ffffffffffffffffffffffffffffffffffffffff1681565b610467610789565b73ffffffffffffffffffffffffffffffffffffffff16610485610410565b73ffffffffffffffffffffffffffffffffffffffff16146104db576040517f08c379a00000000000000000000000000000000000000000000000000000000081526004016104d290610c4a565b60405180910390fd5b600073ffffffffffffffffffffffffffffffffffffffff168173ffffffffffffffffffffffffffffffffffffffff16141561054b576040517f08c379a000000000000000000000000000000000000000000000000000000000815260040161054290610c0a565b60405180910390fd5b61055481610791565b50565b61055f610789565b73ffffffffffffffffffffffffffffffffffffffff1661057d610410565b73ffffffffffffffffffffffffffffffffffffffff16146105d3576040517f08c379a00000000000000000000000000000000000000000000000000000000081526004016105ca90610c4a565b60405180910390fd5b600073ffffffffffffffffffffffffffffffffffffffff16600160009054906101000a900473ffffffffffffffffffffffffffffffffffffffff1673ffffffffffffffffffffffffffffffffffffffff1614610664576040517f08c379a000000000000000000000000000000000000000000000000000000000815260040161065b90610caa565b60405180910390fd5b80600160006101000a81548173ffffffffffffffffffffffffffffffffffffffff021916908373ffffffffffffffffffffffffffffffffffffffff16021790555050565b60008047905060008473ffffffffffffffffffffffffffffffffffffffff16846040516106d59190610b94565b6000604051808303816000865af19150503d8060008114610712576040519150601f19603f3d011682016040523d82523d6000602084013e610717565b606091505b505090508061075b576040517f08c379a000000000000000000000000000000000000000000000000000000000815260040161075290610c2a565b60405180910390fd5b60004790508281111561077b5782816107749190610cf1565b9350610780565b600093505b50505092915050565b600033905090565b60008060009054906101000a900473ffffffffffffffffffffffffffffffffffffffff169050816000806101000a81548173ffffffffffffffffffffffffffffffffffffffff021916908373ffffffffffffffffffffffffffffffffffffffff1602179055508173ffffffffffffffffffffffffffffffffffffffff168173ffffffffffffffffffffffffffffffffffffffff167f8be0079c531659141344cd1fd0a4f28419497f9722a3daafe3b4186f6b6457e060405160405180910390a35050565b60008135905061086481610e1d565b92915050565b60008083601f84011261087c57600080fd5b8235905067ffffffffffffffff81111561089557600080fd5b6020830191508360018202830111156108ad57600080fd5b9250929050565b6000602082840312156108c657600080fd5b60006108d484828501610855565b91505092915050565b6000806000604084860312156108f257600080fd5b600061090086828701610855565b935050602084013567ffffffffffffffff81111561091d57600080fd5b6109298682870161086a565b92509250509250925092565b61093e81610d61565b82525050565b61094d81610d25565b82525050565b600061095e82610cca565b6109688185610cd5565b9350610978818560208601610dbb565b80840191505092915050565b61098d81610d73565b82525050565b60006109a0602683610ce0565b91507f4f776e61626c653a206e6577206f776e657220697320746865207a65726f206160008301527f64647265737300000000000000000000000000000000000000000000000000006020830152604082019050919050565b6000610a06601d83610ce0565b91507f66756e6374696f6e20666f776172642063616c6c20636f6d706c6574650000006000830152602082019050919050565b6000610a46602083610ce0565b91507f4f776e61626c653a2063616c6c6572206973206e6f7420746865206f776e65726000830152602082019050919050565b6000610a86602083610ce0565b91507f63616e27742072656c61792063616c6c732066726f6d20636f6e7472616374736000830152602082019050919050565b6000610ac6602783610ce0565b91507f526567697374727920636f6e7472616374206973206e656564656420746f206660008301527f6f727761726420000000000000000000000000000000000000000000000000006020830152604082019050919050565b6000610b2c602383610ce0565b91507f43616e206f6e6c792073657420726567697374727920636f6e7472616374206f60008301527f6e636500000000000000000000000000000000000000000000000000000000006020830152604082019050919050565b610b8e81610d57565b82525050565b6000610ba08284610953565b915081905092915050565b6000602082019050610bc06000830184610944565b92915050565b6000604082019050610bdb6000830185610935565b610be86020830184610b85565b9392505050565b6000602082019050610c046000830184610984565b92915050565b60006020820190508181036000830152610c2381610993565b9050919050565b60006020820190508181036000830152610c43816109f9565b9050919050565b60006020820190508181036000830152610c6381610a39565b9050919050565b60006020820190508181036000830152610c8381610a79565b9050919050565b60006020820190508181036000830152610ca381610ab9565b9050919050565b60006020820190508181036000830152610cc381610b1f565b9050919050565b600081519050919050565b600081905092915050565b600082825260208201905092915050565b6000610cfc82610d57565b9150610d0783610d57565b925082821015610d1a57610d19610dee565b5b828203905092915050565b6000610d3082610d37565b9050919050565b600073ffffffffffffffffffffffffffffffffffffffff82169050919050565b6000819050919050565b6000610d6c82610d97565b9050919050565b6000610d7e82610d85565b9050919050565b6000610d9082610d37565b9050919050565b6000610da282610da9565b9050919050565b6000610db482610d37565b9050919050565b60005b83811015610dd9578082015181840152602081019050610dbe565b83811115610de8576000848401525b50505050565b7f4e487b7100000000000000000000000000000000000000000000000000000000600052601160045260246000fd5b610e2681610d25565b8114610e3157600080fd5b5056fea264697066735822122066c286208a553d7cc6408a923f486058a602262b003642ee7b2339c60540185b64736f6c63430008000033",
  "linkReferences": {},
  "deployedLinkReferences": {}
}