{
  "_format": "hh-sol-artifact-1",
  "contractName": "Registry",
  "sourceName": "contracts/Registry.sol",
  "abi": [
    {
      "inputs": [
        {
          "internalType": "address",
          "name": "_forwarderAddress",
          "type": "address"
        }
      ],
      "stateMutability": "nonpayable",
      "type": "constructor"
    },
    {
      "anonymous": false,
      "inputs": [
        {
          "indexed": true,
          "internalType": "address",
          "name": "_relayer",
          "type": "address"
        },
        {
          "indexed": false,
          "internalType": "uint256",
          "name": "fee",
          "type": "uint256"
        }
      ],
      "name": "RelayLog",
      "type": "event"
    },
    {
      "anonymous": false,
      "inputs": [
        {
          "indexed": true,
          "internalType": "address",
          "name": "_relayer",
          "type": "address"
        }
      ],
      "name": "RelayerLocatorSet",
      "type": "event"
    },
    {
      "inputs": [],
      "name": "allRelayers",
      "outputs": [
        {
          "internalType": "uint256",
          "name": "count",
          "type": "uint256"
        }
      ],
      "stateMutability": "view",
      "type": "function"
    },
    {
      "inputs": [],
      "name": "forwarderAddress",
      "outputs": [
        {
          "internalType": "address",
          "name": "",
          "type": "address"
        }
      ],
      "stateMutability": "view",
      "type": "function"
    },
    {
      "inputs": [
        {
          "internalType": "uint256",
          "name": "_index",
          "type": "uint256"
        }
      ],
      "name": "getRelayerByIdx",
      "outputs": [
        {
          "internalType": "address",
          "name": "",
          "type": "address"
        }
      ],
      "stateMutability": "view",
      "type": "function"
    },
    {
      "inputs": [],
      "name": "getRelayersCount",
      "outputs": [
        {
          "internalType": "uint256",
          "name": "",
          "type": "uint256"
        }
      ],
      "stateMutability": "view",
      "type": "function"
    },
    {
      "inputs": [
        {
          "internalType": "address",
          "name": "_relayer",
          "type": "address"
        },
        {
          "internalType": "uint256",
          "name": "fee",
          "type": "uint256"
        }
      ],
      "name": "logRelay",
      "outputs": [],
      "stateMutability": "nonpayable",
      "type": "function"
    },
    {
      "inputs": [
        {
          "internalType": "address",
          "name": "_relayer",
          "type": "address"
        }
      ],
      "name": "relayerExists",
      "outputs": [
        {
          "internalType": "bool",
          "name": "",
          "type": "bool"
        }
      ],
      "stateMutability": "view",
      "type": "function"
    },
    {
      "inputs": [
        {
          "internalType": "address",
          "name": "",
          "type": "address"
        }
      ],
      "name": "relayertoFee",
      "outputs": [
        {
          "internalType": "uint256",
          "name": "sum",
          "type": "uint256"
        },
        {
          "internalType": "uint256",
          "name": "count",
          "type": "uint256"
        }
      ],
      "stateMutability": "view",
      "type": "function"
    },
    {
      "inputs": [
        {
          "internalType": "address",
          "name": "",
          "type": "address"
        }
      ],
      "name": "relayertoLocator",
      "outputs": [
        {
          "internalType": "string",
          "name": "locator",
          "type": "string"
        }
      ],
      "stateMutability": "view",
      "type": "function"
    },
    {
      "inputs": [
        {
          "internalType": "address",
          "name": "_relayer",
          "type": "address"
        },
        {
          "internalType": "string",
          "name": "ipAddr",
          "type": "string"
        }
      ],
      "name": "setRelayerLocator",
      "outputs": [],
      "stateMutability": "nonpayable",
      "type": "function"
    }
  ],
  "bytecode": "0x608060405234801561001057600080fd5b50604051610ebb380380610ebb8339818101604052810190610032919061008d565b806000806101000a81548173ffffffffffffffffffffffffffffffffffffffff021916908373ffffffffffffffffffffffffffffffffffffffff160217905550506100ff565b600081519050610087816100e8565b92915050565b60006020828403121561009f57600080fd5b60006100ad84828501610078565b91505092915050565b60006100c1826100c8565b9050919050565b600073ffffffffffffffffffffffffffffffffffffffff82169050919050565b6100f1816100b6565b81146100fc57600080fd5b50565b610dad8061010e6000396000f3fe608060405234801561001057600080fd5b50600436106100935760003560e01c8063d0600aac11610066578063d0600aac14610132578063d187223714610163578063d3d9ec0114610193578063df1c271d146101b1578063fdde1dd2146101cf57610093565b8063174ab8891461009857806330b9991b146100b65780638804029a146100d2578063a4943f4814610102575b600080fd5b6100a06101eb565b6040516100ad9190610a96565b60405180910390f35b6100d060048036038101906100cb919061094b565b61020f565b005b6100ec60048036038101906100e791906108ca565b6103e5565b6040516100f99190610ab1565b60405180910390f35b61011c60048036038101906101179190610987565b61043e565b6040516101299190610a96565b60405180910390f35b61014c600480360381019061014791906108ca565b61047e565b60405161015a929190610b49565b60405180910390f35b61017d600480360381019061017891906108ca565b6104a2565b60405161018a9190610acc565b60405180910390f35b61019b610548565b6040516101a89190610b2e565b60405180910390f35b6101b9610555565b6040516101c69190610b2e565b60405180910390f35b6101e960048036038101906101e491906108f3565b610561565b005b60008054906101000a900473ffffffffffffffffffffffffffffffffffffffff1681565b60008054906101000a900473ffffffffffffffffffffffffffffffffffffffff1673ffffffffffffffffffffffffffffffffffffffff163373ffffffffffffffffffffffffffffffffffffffff161461029d576040517f08c379a000000000000000000000000000000000000000000000000000000000815260040161029490610aee565b60405180910390fd5b6102a6826106d2565b6000600260008473ffffffffffffffffffffffffffffffffffffffff1673ffffffffffffffffffffffffffffffffffffffff16815260200190815260200160002060405180604001604052908160008201548152602001600182015481525050905060405180604001604052808383600001516103239190610b8e565b8152602001600183602001516103399190610b8e565b815250600260008573ffffffffffffffffffffffffffffffffffffffff1673ffffffffffffffffffffffffffffffffffffffff16815260200190815260200160002060008201518160000155602082015181600101559050508273ffffffffffffffffffffffffffffffffffffffff167fe5310e105b2cdbf201ce39166dc38798206177d77d2a664468197cf16174889e836040516103d89190610b2e565b60405180910390a2505050565b6000600360020160008373ffffffffffffffffffffffffffffffffffffffff1673ffffffffffffffffffffffffffffffffffffffff16815260200190815260200160002060009054906101000a900460ff169050919050565b60006003600101600083815260200190815260200160002060009054906101000a900473ffffffffffffffffffffffffffffffffffffffff169050919050565b60026020528060005260406000206000915090508060000154908060010154905082565b60016020528060005260406000206000915090508060000180546104c590610c5f565b80601f01602080910402602001604051908101604052809291908181526020018280546104f190610c5f565b801561053e5780601f106105135761010080835404028352916020019161053e565b820191906000526020600020905b81548152906001019060200180831161052157829003601f168201915b5050505050905081565b6000600360000154905090565b60038060000154905081565b8273ffffffffffffffffffffffffffffffffffffffff163373ffffffffffffffffffffffffffffffffffffffff16146105cf576040517f08c379a00000000000000000000000000000000000000000000000000000000081526004016105c690610b0e565b60405180910390fd5b6105d8836106d2565b604051806020016040528083838080601f016020809104026020016040519081016040528093929190818152602001838380828437600081840152601f19601f82011690508083019250505050505050815250600160008573ffffffffffffffffffffffffffffffffffffffff1673ffffffffffffffffffffffffffffffffffffffff16815260200190815260200160002060008201518160000190805190602001906106869291906107b3565b509050508273ffffffffffffffffffffffffffffffffffffffff167f16ea9e19a79eca7243a09e1faf95309be7c54c020661fdcac7ff5ce9861e51a860405160405180910390a2505050565b6106db816103e5565b6107b0576001600360020160008373ffffffffffffffffffffffffffffffffffffffff1673ffffffffffffffffffffffffffffffffffffffff16815260200190815260200160002060006101000a81548160ff0219169083151502179055508060036001016000600360000154815260200190815260200160002060006101000a81548173ffffffffffffffffffffffffffffffffffffffff021916908373ffffffffffffffffffffffffffffffffffffffff160217905550600360000160008154809291906107aa90610c91565b91905055505b50565b8280546107bf90610c5f565b90600052602060002090601f0160209004810192826107e15760008555610828565b82601f106107fa57805160ff1916838001178555610828565b82800160010185558215610828579182015b8281111561082757825182559160200191906001019061080c565b5b5090506108359190610839565b5090565b5b8082111561085257600081600090555060010161083a565b5090565b60008135905061086581610d49565b92915050565b60008083601f84011261087d57600080fd5b8235905067ffffffffffffffff81111561089657600080fd5b6020830191508360018202830111156108ae57600080fd5b9250929050565b6000813590506108c481610d60565b92915050565b6000602082840312156108dc57600080fd5b60006108ea84828501610856565b91505092915050565b60008060006040848603121561090857600080fd5b600061091686828701610856565b935050602084013567ffffffffffffffff81111561093357600080fd5b61093f8682870161086b565b92509250509250925092565b6000806040838503121561095e57600080fd5b600061096c85828601610856565b925050602061097d858286016108b5565b9150509250929050565b60006020828403121561099957600080fd5b60006109a7848285016108b5565b91505092915050565b6109b981610be4565b82525050565b6109c881610bf6565b82525050565b60006109d982610b72565b6109e38185610b7d565b93506109f3818560208601610c2c565b6109fc81610d38565b840191505092915050565b6000610a14601b83610b7d565b91507f43616c6c6572206973206e6f742074686520666f7277617264657200000000006000830152602082019050919050565b6000610a54601d83610b7d565b91507f63616e206f6e6c7920736574206c6f6361746f7220666f722073656c660000006000830152602082019050919050565b610a9081610c22565b82525050565b6000602082019050610aab60008301846109b0565b92915050565b6000602082019050610ac660008301846109bf565b92915050565b60006020820190508181036000830152610ae681846109ce565b905092915050565b60006020820190508181036000830152610b0781610a07565b9050919050565b60006020820190508181036000830152610b2781610a47565b9050919050565b6000602082019050610b436000830184610a87565b92915050565b6000604082019050610b5e6000830185610a87565b610b6b6020830184610a87565b9392505050565b600081519050919050565b600082825260208201905092915050565b6000610b9982610c22565b9150610ba483610c22565b9250827fffffffffffffffffffffffffffffffffffffffffffffffffffffffffffffffff03821115610bd957610bd8610cda565b5b828201905092915050565b6000610bef82610c02565b9050919050565b60008115159050919050565b600073ffffffffffffffffffffffffffffffffffffffff82169050919050565b6000819050919050565b60005b83811015610c4a578082015181840152602081019050610c2f565b83811115610c59576000848401525b50505050565b60006002820490506001821680610c7757607f821691505b60208210811415610c8b57610c8a610d09565b5b50919050565b6000610c9c82610c22565b91507fffffffffffffffffffffffffffffffffffffffffffffffffffffffffffffffff821415610ccf57610cce610cda565b5b600182019050919050565b7f4e487b7100000000000000000000000000000000000000000000000000000000600052601160045260246000fd5b7f4e487b7100000000000000000000000000000000000000000000000000000000600052602260045260246000fd5b6000601f19601f8301169050919050565b610d5281610be4565b8114610d5d57600080fd5b50565b610d6981610c22565b8114610d7457600080fd5b5056fea2646970667358221220ffd69c2e27019e9392943477e48fe16e25f5ec574256581a6daeb6c8bb383c0064736f6c63430008000033",
  "linkReferences": {},
  "deployedLinkReferences": {}
}